:020000001028C6
:10000800FE00030EF6000408F7000A08F800831241
:1000180003137F08F900522A1128FE23BA0083131C
:100028002E3084003930CA23703084007530CA23DA
:100038008301D82AD03083120313A7002708B900F8
:10004800B71C41280630A7002708B0000930730202
:10005800031833280130A7002708F3073F28093081
:10006800720203183D28F3010130A7002708F207A0
:100078003F28F301F20197230800371CB7196228BB
:10008800F023013083120313A7002708B0000930BA
:100098007302031854280130A7002708F3076028C3
:1000A8000530720203185E28F3010130A700270803
:1000B800F2076028F301F20197230800371CB71DE7
:1000C8008C280230A7002708B0007008031D72288A
:1000D80009307102031C8028013086280230700222
:1000E800031C7C2803307102031C8028F001892836
:1000F80009307102031885280130A7002708F10785
:100108008A280230A7002708F000F101A923080077
:100118003718371AB0280530A7002708B00072082A
:10012800031DA02809307302031CA4280130A7006E
:100138002708F200F301AE28023073020318A92839
:100148000130A7002708F307AE28F2010130A70005
:100158002708F30097230800063083120313A7002B
:100168002708B00016230F30740583120313A70065
:100178000A30A8002808A0007408A9000430031059
:10018800A90CFF3E031DC3282908842383120313E7
:100198002707AA002A08AB000430A7002708B000E8
:1001A8007208031DEA2873030319F4280330730641
:1001B8000319F428053073060319F4280730730669
:1001C8000319F428083073060319F4287203031D71
:1001D800FC2873080319F42802307306031DFC2851
:1001E80003307002031C47297108031955295A293D
:1001F8000430730603190A290630730603190A29FD
:1002080009307306031D7303031D0F2903307002A1
:1002180003185A29472903307006031D1529F101CF
:10022800F0012B080339031D2B296430A00000308E
:10023800A1002B08A700A8012708A2002808A300EE
:10024800D2218312031320082104031D3D29903075
:10025800A0000130A1002B08A700A8012708A200D0
:100268002808A300D2218312031320082104031DA8
:10027800432902307002031C4729093052290230F1
:1002880070020318512909307102031C5529F10124
:100298000130A7002708F0075F290830710203180A
:1002A8005A290130A7002708F1075F29F00101301A
:1002B800A7002708F100A9230800831203133608B2
:1002C800031968290130B602350803196D29013070
:1002D800B5023408031972290130B402051A9D29A0
:1002E800371D81293408031D9D291E200A308312D9
:1002F8000313AC002C08B4009D293608031D9D2962
:10030800371CB7188929371496293718B7188E2932
:10031800B7149629FE30AC002C08B705FD30AC00A8
:100328002C08B7051F220A3083120313AC002C08CF
:10033800B600061808003508031D08003719AB2950
:10034800B70137150230AC002C08B800CA29371C91
:10035800B719B029B715BD29371CB71DB9293714E6
:100368000230AC002C08B800C4293718371AC02945
:100378003716B8010130C529B718C929B714B8010B
:100388000330AC002C08BA00CA29B7011F220A3072
:1003980083120313AC002C08B50008008312031362
:1003A800A601A31FDE29A209A309A20A0319A30A09
:1003B800A601A60AA11FE529A009A109A00A0319F7
:1003C800A10A200821040319122AA501A50AA11BC4
:1003D800F92901300310A00DA10DFF3E031DEE29E0
:1003E8000130A4002408A507EB2921082302031DD6
:1003F800FF2920082202031C072A2008A20221083C
:10040800031CA303A30201300310A10CA00CFF3EA0
:10041800031D082A0130A502031DF929260803191E
:100428001A2AA209A309A20A0319A30A2308A100E8
:100438002208A0000800D03083120313A600260863
:10044800B900B71C342A0630A6002608B000462397
:10045800F101023083120313A6002608F0000800F9
:10046800371C432A0430A6002608B0005B23053059
:1004780083120313A6002608B000462308000130A3
:1004880083120313A6002608B00046230230831205
:100498000313A6002608B0005B2308000B11FE30EA
:1004A800860031080B3E8400702385003108703EB9
:1004B80084000008013E8400702386000130F500A6
:1004C8007508B10731083A0203186E2A3808F50092
:1004D8007508B1000130B3020130B2026430F50092
:1004E800750881077908FF0078088A007708840072
:1004F800760E8300FE0E7E0E090083120313A10000
:10050800AE010830A0002008A20022080319A02A82
:10051800A11F902AF623912AE223FA2383120313B8
:10052800051D922AE923031083120313A10D01303C
:10053800A2022208031D8C2AF623FA23831203132E
:10054800051DA22A851DAC2A0130A0002008AE0096
:10055800E923080083120313A100F4010830A00066
:100568002008A20022080319CB2A0310F40DF62351
:10057800FA2383120313051DBD2A85197414E92370
:10058800013083120313A2022208031DB92A21088D
:100598000319D02AF623D12AE223FA23831203135C
:1005A800051DD22AE9230800FA222F23643083127A
:1005B8000313AD002D0881078B173308031DEB2AA1
:1005C8001F22C83083120313AD002D08B300320870
:1005D800031DF52A6121143083120313AD002D0881
:1005E800B200051AE12A3719EB2AE12A8316031308
:1005F8008E150730831203139F00831603139F136E
:100608001C308500013086008312031385018601A2
:10061800C33083160313810083120313970120301C
:100628008B000800DA23831203133908812283120E
:10063800031330088122DA2383120313391439088B
:1006480081220130AE22FE3083120313A300230857
:10065800B905D2230800D03083120313A40024085C
:10066800B900B0011623F41F0800F02307308312E5
:100678000313A4002408B0009030A4002408AF009D
:10068800BB230800162374080F3983120313A40030
:100698002408F3007408A40004300310A40CFF3EDF
:1006A800031D512B2408A5002508F2000800162375
:1006B80074080F3983120313A4002408F100740886
:1006C800A40004300310A40CFF3E031D662B24086D
:1006D800A5002508F000080003308A000408840AF1
:1006E8008207003403349F3425340D349934493457
:1006F80041341F34013409340034013402340334E2
:1007080083120313A300A201231C8E2B2008A1002F
:100718002108A2070310A00D0310A30C2308031D32
:10072800882B22080800720883120313A3000330E1
:100738000310A30DFF3E031D9C2B0310230D730410
:10074800A4002408AF00BB23080070088312031319
:10075800A30003300310A30DFF3E031DAE2B0310AF
:10076800230D7104A4002408AF00BB230800DA237A
:10077800831203133908812283120313300881225C
:10078800831203132F088122D223080064008001FA
:10079800840A0406031900340406CB2BE223FA2347
:1007A80083120313051DD42BF623080083120313A9
:1007B800851D8515FA23E223E92308008316031310
:1007C800851183120313851108008316031305117D
:1007D800831203130511080083120313B001AF013C
:1007E800BB2308008316031385150800831603131B
:0607F800051508000334A2
:02400E0070FF41
:00000001FF
