:020000001028C6
:10000800FE00030EF6000408F7000A08F800831241
:1000180003137F08F900B0291128F001F101F2015A
:10002800F301F40183120313AE01AF01B001B10172
:10003800B201B3018301092BD03083120313A70047
:100048002708B400F41C43280630A7002708B0008E
:1000580009307302031835280130A7002708F30771
:1000680041280930720203183F28F3010130A70024
:100078002708F2074128F301F2016F230800741CD6
:10008800F4196428C023013083120313A70027083A
:10009800B00009307302031856280130A70027085A
:1000A800F30762280530720203186028F301013053
:1000B800A7002708F2076228F301F2016F2308005E
:1000C800741CF41D8E280230A7002708B0007008A1
:1000D800031D742809307102031C82280130882806
:1000E80002307002031C7E2803307102031C822830
:1000F800F0018B2809307102031887280130A70006
:100108002708F1078C280230A7002708F000F10122
:10011800812308007418741AB2280530A70027082C
:10012800B0007208031DA22809307302031CA62818
:100138000130A7002708F200F301B028023073024B
:100148000318AB280130A7002708F307B028F201ED
:100158000130A7002708F3006F2308000630831238
:100168000313A7002708B000F0220F3083120313EF
:100178003305A7000A30A8002808A0003308A90002
:1001880004300310A90CFF3E031DC52829085C2371
:10019800831203132707AA002A08AB000430A7001C
:1001A8002708B0007208031DEC2873030319F6280A
:1001B800033073060319F628053073060319F62869
:1001C800073073060319F628083073060319F62852
:1001D8007203031DFE2873080319F62802307306FC
:1001E800031DFE2803307002031C492971080319F6
:1001F80057295C290430730603190C290630730645
:1002080003190C2909307306031D7303031D1129F3
:100218000330700203185C29492903307006031D56
:100228001729F101F0012B080339031D2D2964302A
:10023800A0000030A1002B08A700A8012708A200F1
:100248002808A30063218312031320082104031D37
:100258003F299030A0000130A1002B08A700A80179
:100268002708A2002808A30063218312031320088B
:100278002104031D452902307002031C4929093055
:100288005429023070020318532909307102031CE3
:100298005729F1010130A7002708F0076129083024
:1002A800710203185C290130A7002708F1076129AA
:1002B800F0010130A7002708F1008123080083120C
:1002C8000313A601A31F6F29A209A309A20A0319F0
:1002D800A30AA601A60AA11F7629A009A109A00AB6
:1002E8000319A10A200821040319A329A501A50AB5
:1002F800A11B8A2901300310A00DA10DFF3E031D8B
:100308007F290130A4002408A5077C29210823029D
:10031800031D902920082202031C98292008A20204
:100328002108031CA303A30201300310A10CA00C95
:10033800FF3E031D99290130A502031D8A292608BD
:100348000319AB29A209A309A20A0319A30A2308BE
:10035800A1002208A00008000B11FE308600310819
:100368000B3E8400482385003108703E8400000855
:10037800013E8400482386000130F5007508B10766
:100388007419F418E1297418CB29F41DCE297418AE
:10039800741ADB2902303102031CD62904303102D9
:1003A800031CE5290230F5007508B100E529023083
:1003B8003102031CE529B101E5290330F500750870
:1003C800B1050130B2026430F500750881078B175A
:1003D8007908FF0078088A0077088400760E830081
:1003E800FE0E7E0E090083120313051A122A741DCD
:1003F800FF292020122A741CF418042A7414112AC4
:100408007418F418092AF414112AFE30AC002C08C8
:10041800F405FD30AC002C08F405312283120313D7
:100428000618080074191B2AF40174152F2A741C65
:10043800F419202AF4152F2A741CF41D252A741483
:100448002F2A7418741A2A2A74162F2AF4182E2A96
:10045800F4142F2AF40131220800D0308312031338
:10046800A6002608B400F41C462A0630A600260872
:10047800B0001E23F101023083120313A6002608E0
:10048800F0000800741C552A0430A6002608B000A5
:100498003323053083120313A6002608B0001E2359
:1004A8000800013083120313A6002608B0001E239B
:1004B800023083120313A6002608B0003323080075
:1004C80083120313A100AE010830A0002008A20087
:1004D80022080319832AA11F732AC623742AB22368
:1004E800CA2383120313051D752AB9230310831227
:1004F8000313A10D0130A2022208031D6F2AC6238F
:10050800CA2383120313051D852A851D8F2A0130EE
:10051800A0002008AE00B923080083120313A1002D
:10052800B3010830A0002008A20022080319AE2A4F
:100538000310B30DC623CA2383120313051DA02A73
:1005480085193314B923013083120313A202220838
:10055800031D9C2A21080319B32AC623B42AB223EF
:10056800CA2383120313051DB52AB923080083166D
:1005780003138E150730831203139F00831603138A
:100588009F131C30850001308600831203138501F8
:100598008601C33083160313810083120313970166
:1005A80020308B000800D03083120313A4002408E5
:1005B800B400B001F02283120313B31F0800C02354
:1005C800073083120313A4002408B0009030A4005D
:1005D8002408AF0093230800AA23831203133408C6
:1005E80064228312031330086422AA23831203139C
:1005F80034143408642201309122FE30831203132C
:10060800A3002308B405A2230800BB22D722643024
:1006180083120313AD002D0881078B173208031DC1
:10062800122B3122F721643083120313AD002D08F9
:10063800B200122BF0228312031333080F39A400DF
:100648002408F3003308A40004300310A40CFF3E70
:10065800031D292B2408A5002508F2000800F02214
:100668008312031333080F39A4002408F100330858
:10067800A40004300310A40CFF3E031D3E2B2408E5
:10068800A5002508F000080003308A000408840A41
:100698008207003403349F3425340D3499344934A7
:1006A80041341F3401340934003401340234033432
:1006B80083120313A300A201231C662B2008A100A8
:1006C8002108A2070310A00D0310A30C2308031D83
:1006D800602B22080800720883120313A30003305A
:1006E8000310A30DFF3E031D742B0310230D730489
:1006F800A4002408AF009323080070088312031392
:10070800A30003300310A30DFF3E031D862B031027
:10071800230D7104A4002408AF0093230800AA2322
:1007280083120313340864228312031330086422EB
:10073800831203132F086422A2230800B223CA23BA
:1007480083120313051DA42BC62308008312031369
:10075800851D8515CA23B223B92308008316031300
:1007680085118312031385110800831603130511DD
:10077800831203130511080083120313B001AF019C
:1007880093230800831603138515080083160313A3
:04079800051508003B
:02400E0070FF41
:00000001FF
